:020000040800F2
:100000006012002009010008D9210008A52000087D
:100010007D210008451500084D2C00080000000057
:10002000000000000000000000000000FD260008A5
:10003000711A000800000000592500083528000842
:100040002301000823010008230100082301000800
:1000500023010008230100082301000823010008F0
:1000600023010008230100082301000823010008E0
:1000700023010008230100082301000823010008D0
:1000800023010008230100082301000823010008C0
:1000900023010008230100082301000823010008B0
:1000A00023010008230100082301000823010008A0
:1000B00023010008A52800082301000823010008E7
:1000C0002301000823010008230100082301000880
:1000D00023010008652900089D290008ED29000872
:1000E0002301000823010008230100082301000860
:1000F00023010008DFF80CD000F02EFC0048004778
:100100003D36000860120020064880470648004738
:10011000FEE7FEE7FEE7FEE7FEE7FEE7FEE7FEE7B7
:10012000FEE7FEE73D280008F500000840EA01036D
:100130009B0703D009E008C9121F08C0042AFAD29D
:1001400003E011F8013B00F8013B521EF9D2704761
:10015000D2B201E000F8012B491EFBD27047002209
:10016000F6E710B513460A4604461946FFF7F0FFB6
:10017000204610BD421E12F8013F002BFBD111F8A2
:10018000013B02F8013B002BF9D1704730B5054621
:100190002A460B4612F8010B13F8014B08B1A04296
:1001A000F8D01CB1002802D06D1CF1E7284630BD04
:1001B000421C10F8011B0029FBD1801A7047F0B4D3
:1001C00080EA0102D40F4200B2EB410F02D2024694
:1001D000084611464A0042D0C30DDDB2C1F3C752F2
:1001E000AD1A202D35DAC1F3160141F4000204B135
:1001F0005242C5F1200602FA06F12A411044B3EB3F
:10020000D05F23D0C4B1012DA0EBC35009DCF0BCFA
:100210004FF0004202EAC35200F50000DBB200F0EA
:1002200071BA400000F1807000EBC350A0F1807003
:1002300040EAD170490009E0490841EAC071A0EBE9
:10024000C35000F50000400800EBC350F0BC00F0C4
:1002500050BA6142012202EB4101001BF6E7F0BCFB
:10026000704781F00041AAE780F00040A7E780EAEC
:10027000010210B502F00043400026D04A0023D00E
:100280004FEA106101EB1261C0F35600C2F356024F
:1002900040F4000042F40002A0FB0220A1F17F0123
:1002A0004FEA0040140401D000F1010050EA12406E
:1002B00001D44000491EC2B20C0604EBD010401C11
:1002C0004008802A02D003E0002010BD20F0010089
:1002D000002900DA0020184310BD30B480EA010282
:1002E00002F0004530F0004221F0004015D0A0B1EE
:1002F000C0F3C753C2F3C754C2F31601C0F31600CC
:10030000E41A41F4000140F400027D34914201D32B
:10031000641C00E04900002C02DA30BC0020704769
:100320004FF400000023914201D3891A034340088F
:100330004FEA4101F7D151B1914202D14FF0004152
:1003400005E002D24FF0010101E06FF0010103EB83
:10035000C450284430BC00F0CCB92DE9FE4F804693
:1003600081EA0300C00F0C46009021F0004123F009
:100370000045B8EB0200A94105D24046214690460F
:100380001C460B46024623F00040104304D1404671
:10039000214603B0BDE8F08F270DC7F30A00C3F371
:1003A0000A510290401A0190402866DAC3F3130004
:1003B00040F4801B0098924620B10023D2EB030A40
:1003C00063EB0B0B01985946C0F14002504600F018
:1003D0006FF906460D4650465946019A00F077F9E6
:1003E00010EB08006141002487EA115284EAE773A8
:1003F0001A433BD0009A3AB3019A012A4FEA0752B6
:1004000010DC001B61EB02014FF0004202EA0752D0
:10041000CDE90042001C41F5801132462B4600F028
:10042000ABF9B6E7001B61EB0201001C41F580133C
:1004300000185B412018A2F5001747EB030140EAC2
:10044000D570B6196D4111E06D084FEA360645EAE0
:10045000C0754FEA0752001B61EB0201001C41F519
:10046000801149084FEA30000019514132462B46AD
:1004700003B0BDE8F04F00F072B9009801224000CF
:100480000023D0EB020263EBE073009821464FEAB1
:10049000E074B8EB000061EB0401E9E783F000438E
:1004A0005BE781F0004158E72DE9F04D81EA030454
:1004B00004F0004B21F0004514464FF0000A23F0F1
:1004C000004150EA050220D054EA01021DD0C5F3D4
:1004D0000A570246C5F31303C1F31300C1F30A56CA
:1004E00040F4801543F48013A7EB0608101BD64692
:1004F00008F2FD3873EB050002D308F1010801E0B2
:1005000092185B41B8F1000F03DA00200146BDE804
:10051000F08D00204FF48011064684460EE0171B34
:1005200073EB050705D3121B63EB050306434CEA87
:10053000010C49084FEA300092185B4150EA01076C
:10054000EDD152EA030012D082EA040083EA0501E9
:10055000084303D100224FF0004308E0101BAB41D9
:1005600002D20122002302E06FF0010253101AEBC5
:1005700006004CEB085110EB0A0041EB0B01BDE803
:10058000F04D00F0ECB8C10F80EAE0700844CA07F3
:100590009623002100F0B6B896230022114600F001
:1005A000B1B80EB5C10F80EAE0700844CA07002157
:1005B00040F233438DE80E000A460B4600F0DCF8AB
:1005C00003B000BD00F0004230F000400AD0C10D81
:1005D00001F56071C0F3160042EA0151C2084007FC
:1005E0001143704700200146704701F0004330B4CA
:1005F00021F0004150EA010206D00A0DA2F5607216
:10060000C1F31301002A02DC30BC00207047440F04
:1006100044EAC104C100E01830BC00EBC25000F055
:1006200068B830B50B46014600202022012409E0BD
:1006300021FA02F59D4205D303FA02F5491B04FA9B
:1006400002F52844151EA2F10102F1DC30BD2DE9AE
:10065000F05F0546002092469B4688460646814646
:1006600040241BE0284641464746224600F086F9D2
:1006700053465A46C01A914110D311461846224695
:1006800000F016F82D1A67EB01084F4622460120AC
:10069000002100F00DF817EB00094E41201EA4F1D7
:1006A0000104DFDC484631462A464346BDE8F09F58
:1006B000202A04DB203A00FA02F100207047914022
:1006C000C2F1200320FA03F3194390407047202A17
:1006D00006DBCB17203A41FA02F043EAE07306E06A
:1006E00041FA02F3D040C2F120029140084319467A
:1006F00070470029A8BF7047401C490008BF20F080
:100700000100704710B4B0FA80FC00FA0CF050EA17
:10071000010404BF10BC704749B1CCF1200421FA98
:1007200004F411FA0CF118BF012121430843A3EB93
:100730000C01CB1D0106000A002BBEBF002010BC1F
:10074000704700EBC35010440029A4BF10BC704791
:10075000401C490008BF20F0010010BC704710B5D4
:10076000002B08DA401C41F1000192185B411A434A
:1007700001D120F0010010BD2DE9F04D92469B46BD
:1007800011B1B1FA81F202E0B0FA80F22032904663
:10079000FFF78EFF04460F4640EA0A0041EA0B01CC
:1007A00053465A46084303D120463946BDE8F08DEA
:1007B000114653EA010015D0C8F14002504600F03E
:1007C000DDF805460E46504659464246FFF770FF93
:1007D000084301D0012000E00020054346EAE0760E
:1007E0002C4337430A984FEA4453A0EB08004FEAE2
:1007F000D4240A304FF0000244EA47544FEAD72588
:1008000002D500200146D1E7010510196941DDE953
:10081000084500196941BDE8F04DA0E72DE9FE4FFC
:1008200081EA030404F0004421F0004100944FF0F9
:10083000000B23F0004350EA010402D052EA030403
:1008400004D10020014603B0BDE8F08FC3F30A5481
:10085000C1F30A552C44A4F2F3340194A0FB0254D2
:10086000C1F3130141F48011C3F3130343F4801364
:1008700001FB024400FB034E840A970A44EA8154B8
:1008800047EA8357A4FB076802958D0A05FB078595
:100890004FEA932C04FB0C542705029D4FEA06589F
:1008A00047EA1637B5EB08056EEB070C870E920E7C
:1008B00047EA811742EA8312A7FB0201B6EB0B015C
:1008C00064EB00042B0D43EA0C335E1844EB1C5020
:1008D000DA465146E7FB0201C5F313044FEA0B3336
:1008E00043EA14534FEA0432019C43EA0603A4F19D
:1008F0000C040294009CCDE900B4FFF73DFFA2E791
:10090000C1F30A52C1F3130140F2FF3341F48011E5
:100910009A4202DA00200146704740F233439A427D
:10092000A2F2334202DC524200F028B8FFF7C0BE08
:1009300030B5002904DB4FF00044404264EB010174
:10094000002B04DB4FF00044524264EB0303994256
:1009500008BF904230BD0000064C074D06E0E0683D
:1009600040F0010394E8070098471034AC42F6D3F6
:10097000FFF7C4FB4845000868450008202A04DB4F
:10098000203A21FA02F00021704721FA02F3D04008
:10099000C2F12002914008431946704721B1826894
:1009A00042F00102826003E0826822F0010282606C
:1009B000704721B1826842F48072826003E08268ED
:1009C00022F480728260704721B1826842F4007222
:1009D000826003E0826822F4007282607047000047
:1009E00010B50121080601F0B9FD364800F07CFF82
:1009F0003548364908603648486000208860012044
:100A0000C8600020086148614FF4807088618000F0
:100A1000C8612020086200024862002088622948DC
:100A200001F008F80121274800F052FF012001F0F1
:100A30005FFE0121042001F091FD0120254908609D
:100A4000032008710020C871234801F031F800BF6D
:100A5000212001F033FE0028FAD00121480201F0E4
:100A60009DFD01201D4908714871002088600861C2
:100A7000012008751448583800F03CF80023012282
:100A80000A211148583800F05FF801210E48583803
:100A9000FFF79AFF01210C485838FFF78AFF012120
:100AA00009485838FFF77AFF00BF402106485838F8
:100AB00000F016F80028F8D00348583800F0F0F895
:100AC00010BD00000860024058240140340E002090
:100AD0000000002068000020000802401C0E0020DA
:100AE0000246002013680B4201D0012000E00020E4
:100AF0007047000030B50246002000235068104CBB
:100B000020400D790C6844EA052420435060906829
:100B10000C4C2040D1E903542C438D682C434D7973
:100B200044EA450420439060106B20F0F8700C7D7F
:100B3000641EE4B2234340EA0350106330BD00005A
:100B4000FFFEFFFCFDF7FFC0F0B504460D46002098
:100B500000211D2D11DDE06DA5F11E0606EB4607F7
:100B6000072606FA07F18843A5F11E0606EB46069E
:100B700003FA06F10843E06534E0132D11DDE06867
:100B8000A5F1140606EB4607072606FA07F1884387
:100B9000A5F1140606EB460603FA06F10843E060E9
:100BA00020E0092D11DD2069A5F10A0606EB4607B4
:100BB000072606FA07F18843A5F10A0606EB460662
:100BC00003FA06F1084320610CE0606905EB450774
:100BD000072606FA07F1884305EB450603FA06F1F6
:100BE00008436061072A0FDA206C561E06EB860761
:100BF0001F2606FA07F18843561E06EB860605FAFD
:100C000006F1084320644AE00D2A0FDAE06BD61F94
:100C100006EB86071F2606FA07F18843D61F06EB68
:100C2000860605FA06F10843E06338E0132A11DA74
:100C3000A06BA2F10D0606EB86071F2606FA07F148
:100C40008843A2F10D0606EB860605FA06F1084375
:100C5000A06324E0192A11DA606BA2F1130606EBF7
:100C600086071F2606FA07F18843A2F1130606EB52
:100C7000860605FA06F10843606310E0206BA2F1D6
:100C8000190606EB86071F2606FA07F18843A2F12C
:100C9000190606EB860605FA06F108432063F0BD47
:100CA000816841F0804181607047000038B5054699
:100CB0000C464FF480711448FFF751FA13A317A2A2
:100CC00019491148009401F0D3FF0F4917A001F012
:100CD000BFFF0D4801F0A8FF4FF4967002F064FCCE
:100CE00016A11A48FFF752FA1949086005E013A146
:100CF0001648FFF74BFA16490860154800680028A7
:100D0000F5D000F0F7FC38BD7400002042433230CB
:100D1000475053545241434B000000006B3235663C
:100D2000714E454867497200F43B00086174737462
:100D300072203D202573200D0A0000002B514D54D8
:100D40005055423A20302C312C3000000C09002044
:100D50001400002010B5002422A001F065FF4FF41C
:100D60007A7000F087FE4FF47A7000F083FE4FF443
:100D70007A7000F07FFE00F0BDFC1EA001F054FF71
:100D80004FF4967000F076FE1EA12148FFF7FEF9A1
:100D90002049086000F0AEFC13E0641C00F0AAFCDF
:100DA00014A001F041FF4FF47A7000F063FE15A12A
:100DB0001748FFF7EBF917490860642C01DD0024A0
:100DC00003E0144800680028E7D000BF00F092FC60
:100DD00011A001F029FF4FF4967000F04BFE00F0D7
:100DE00089FC10BD41542B51474E5353433D310DA7
:100DF0000A00000041542B51474E5353433F0D0A04
:100E0000000000002B51474E5353433A203100005D
:100E10000C0900201400002041542B51474E53531D
:100E200052443D224E4D45412F524D43220D0A0062
:100E300010B5002400207149086071A001F008FF7E
:100E400074A001F0F1FE4FF4967000F013FE7348A9
:100E500001F0FEFE72A001F0FBFE75A16F48FFF7E6
:100E600095F97449086000F045FC11E072A001F0AA
:100E7000EFFE00F03FFC67A001F0D6FE4FF4967045
:100E800000F0F8FD6AA16548FFF780F9694908603C
:100E9000684800680028E9D06EA001F0C5FE4FF454
:100EA000967000F0E7FD6EA15C48FFF76FF96149AD
:100EB00008600846006858B9584908316AA001F02E
:100EC000C7FE00F017FC4FF4967000F0D3FD0CE065
:100ED00001204A490860514968A001F0B9FE00F0BC
:100EE00009FC4FF4967000F0C5FD68A001F09CFE6F
:100EF0004FF4967000F0BEFD4DA14848FFF746F94B
:100F00004C49086000F0F6FB4A48006840B100F028
:100F1000F1FB62A001F09CFE4FF4967000F0AAFD78
:100F200062A001F081FE4FF4967000F0A3FD62A173
:100F30003A48FFF72BF93F49086000F0DBFB00243B
:100F400016E0641C00F0D6FB58A001F06DFE4FF4D3
:100F5000967000F08FFD58A13048FFF717F935491A
:100F60000860642C04DD012024490860002403E0AB
:100F7000304800680028E4D000BF52A001F054FEC1
:100F80004FF4967000F076FD29A12448FFF7FEF893
:100F9000284908600846006848B120494CA001F083
:100FA00057FE00F0A7FB4FF4967000F063FD50A0D1
:100FB00001F03AFE4FF4967000F05CFD4FA1174827
:100FC000FFF7E4F81B4908600846006848B1134978
:100FD0004CA001F03DFE00F08DFB4FF4967000F048
:100FE00049FD4CA001F020FE4FF4967000F042FD48
:100FF00000F080FB0148006810BD00001C000020CC
:10100000737461727420696E697420424332300DCA
:101010000A00000041540D0A000000000C090020E5
:10102000676574206261636B20424332300D0A00B1
:101030004F4B0000140000200D0AB5A5C6ACBBFA4A
:10104000D5FDD4DAC1ACBDD3B5BDC4A3BFE92E2E46
:101050002E0D0A0041542B43494D490D0A00000052
:101060004552524F52000000CED2B5C4BFA8BAC5F7
:10107000CAC7203A202573200D0A0000BFA8B4ED8E
:10108000CEF3203A202573200D0A000041542B4353
:10109000474154543D310D0A00000000696E6974E7
:1010A00020504450204F4B0D0A00000041542B4368
:1010B000474154543F0D0A002B43474154543A20B2
:1010C0003100000041542B5142414E443F0D0A0073
:1010D0003D3D3D3D3D3D3D3D42414E443D3D3D3D1F
:1010E0003D3D3D3D3D200D0A202573200D0A0000A9
:1010F00041542B4353510D0A000000002B43535120
:1011000000000000D0C5BAC5D6CAC1BF3A25730DCC
:101110000A00000041542B51434349440D0A00008A
:1011200010B5002422A001F07FFD4FF4967000F06E
:10113000A1FC00F0DFFA22A001F076FD4FF49670DA
:1011400000F098FC00F0D6FA20A001F06DFD4FF4FD
:10115000967000F08FFC20A12248FFF717F8224973
:10116000086000F0C7FA13E0641C00F0C3FA17A08F
:1011700001F05AFD4FF4967000F07CFC16A119485E
:10118000FFF704F818490860642C01DD002403E02F
:10119000154800680028E7D000BF4FF4967000F0B3
:1011A00069FC00F0A7FA4FF4967000F063FC10BDE4
:1011B00041542B434750414444523D310D0A0000F5
:1011C00041542B4347534E3D310D0A0041542B43AC
:1011D000474154543F0D0A002B43474154543A2091
:1011E000310000000C0900201400002030B587B049
:1011F000002577A001F018FD4FF4967002F0D4F9A5
:1012000000F078FA76A001F00FFD4FF4967002F02E
:10121000CBF900F06FFA4FF480717548FEF79FFF2D
:1012200074A07DA380A283A10090714801F020FDED
:101230006F498AA001F00CFD6D4801F0F5FC4FF4F8
:10124000967002F0B1F989A18948FEF79FFF89499C
:10125000086005E085A18648FEF798FF854908608B
:10126000844800680028F5D000F044FA82A001F01C
:10127000DBFC40F6B83002F097F98EA17C48FEF70F
:1012800085FF7C4908602EE06D1C4FF4967002F0DB
:101290008BF988A17648FEF779FF76490860B5F5A5
:1012A000FA7F20DD4021874800F072FC4FF4FA708D
:1012B00000F0E0FB4021834800F068FC4FF496709A
:1012C00000F0D8FB00BFBFF34F8F7F48006800F4E9
:1012D000E0607E490843001D7B490860BFF34F8FE3
:1012E00000BF00BFFEE7634800680028CCD000F0D4
:1012F00001FA77A001F098FC4FF4967002F054F9CF
:1013000076A15B48FEF742FF5A49086005E073A1E9
:101310005748FEF73BFF57490860564800680028C9
:10132000F5D0002407E053480168E01D085C02A9DD
:101330000855601CC4B20F2CF5DB00208DF8170097
:1013400000F0D8F902A967A001F082FC4FF4807187
:101350002748FEF704FF30A267A1254801F088FC6A
:1013600023493EA001F074FC214801F05DFC4FF4DC
:10137000967002F019F965A13D48FEF707FF3D4957
:10138000086005E061A13A48FEF700FF39490860AE
:10139000384800680028F5D000F0ACF94FF48071AF
:1013A0001348FEF7DCFE1CA31FA25CA1104801F04D
:1013B0005FFC0F4929A001F04BFC0D4801F034FC03
:1013C0004FF4967002F0F0F800F094F907B030BDD9
:1013D00041542B514D54444953433D300D0A0000B4
:1013E00041542B514D54434C4F53453D300D0A0051
:1013F0007400002062336665626461333164663470
:10140000326335663937666431396433343565386B
:10141000653837660000000042433230475053546D
:101420005241434B000000006B323566714E454817
:101430006749720041542B514D544346473D224168
:101440004C4941555448222C302C222573222C2201
:101450002573222C222573220D0A000061747374F7
:1014600072203D202573200D0A0000004F4B000024
:101470000C0900201400002041542B514D544F50B2
:10148000454E3D302C22696F742D61732D6D717442
:10149000742E636E2D7368616E676861692E616C6E
:1014A0006979756E63732E636F6D222C3138383312
:1014B0000D0A00002B514D544F50454E3A20302C10
:1014C00030000000000802400CED00E00000FA05CA
:1014D00041542B4347534E3D310D0A002B43475394
:1014E0004E3A0000CED2B5C4C4A3BFE9494D454928
:1014F000CAC73A25730D0A0041542B514D54434F2E
:101500004E4E3D302C222573220D0A002B514D5496
:10151000434F4E4E3A20302C302C300041542B514A
:101520004D545355423D302C312C222F25732F25FD
:10153000732F757365722F676574222C30200D0A26
:101540000000000000BFFEE7F8B504460D46164651
:101550001F464FF480713E48FEF701FE4FF4807144
:101560003C48FEF7FCFD00F0C5F83BA33EA241A1BC
:10157000384801F07DFB37494DA001F069FB354843
:1015800001F052FB4FF4967002F00EF84CA14D485A
:10159000FEF7FCFD4C49086015E04C480068401C13
:1015A0004A49086046A14748FEF7F0FD46490860F1
:1015B0001E2001F0F9FF45480068642803DD002083
:1015C0004249086003E0404800680028E5D000BFB9
:1015D00033462A4621461E48009700F0D1FD1C499B
:1015E0003BA001F035FB1A4801F01EFB1E2001F064
:1015F000DBFF1A2001F0A6F93AA13248FEF7C6FD3A
:101600003149086000203149086015E02F48006822
:10161000401C2E49086033A12A48FEF7B7FD2A492D
:101620000860642001F0C0FF28480068642803DDDA
:1016300000202649086003E0234800680028E5D020
:1016400000BF4FF4967001F0AFFF00F053F8F8BD03
:1016500004070020740000204243323047505354A6
:101660005241434B000000006B323566714E4548D5
:101670006749720041542B514D545055423D302C16
:10168000302C302C302C222F7379732F25732F257B
:10169000732F7468696E672F6576656E742F70722C
:1016A0006F70657274792F706F7374220D0A000069
:1016B0006174737472203D202573200D0A000000B0
:1016C0003E0000000C090020140000200C00002047
:1016D00073656E645F6A736F6E203D202573200D05
:1016E0000A0000002B514D54524543563A20302CED
:1016F0003000000010B5084801F0AAFA4FF49670C7
:1017000000F0B8F900200449C1F804014FF48071D9
:101710000148FEF724FD10BD0C09002010B500247F
:1017200000F02AF804E0601CC4B2032001F05AFF64
:101730004FF480710F4800F020FA08B1642CF2DBFE
:10174000642C01DB012010BD002404E0601CC4B245
:10175000032001F047FF4FF48071064800F00DFAB6
:1017600008B9642CF2DB642C01DB0120EBE70020DC
:10177000E9E70000000402401CB54FF480700090BF
:1017800000208DF8040001208DF80700694602480A
:1017900000F08EF91CBD0000000402401CB54FF49F
:1017A0008070009001208DF804008DF807006946D4
:1017B000014800F07DF91CBD0004024010B5012174
:1017C000022000F0CBFE00F06DF8FFF7A7FF10BD80
:1017D00010B5002404E0601CC4B2032001F002FF35
:1017E0004FF48071104800F0C8F908B1642CF2DBA6
:1017F000002404E0601CC4B2032001F0F3FE4FF4A7
:101800008071094800F0B9F908B9642CF2DB322084
:1018100001F0E8FE4FF48071034800F0AEF908B122
:10182000012010BD0020FCE70004024070B5002438
:10183000002506E06006040EFFF7CAFF0443681C9B
:10184000C5B2082DF6DB204670BD7CB505460E46B8
:1018500000F028F8FFF762FFF8B9002405E0FFF771
:10186000E5FF0DF80400601CC4B2052CF7DB9DF801
:1018700000009DF8011008449DF8021008449DF8EE
:10188000031008449DF80410884208D19DF8000018
:1018900030709DF80200287001E001207CBD00201E
:1018A000FCE7000010B5FFF779FF4FF4807107489F
:1018B00000F06CF9142001F077FE4FF480710348BA
:1018C00000F066F91E2001F08DFE10BD00040240FC
:1018D00021B1026842F00102026004E002684FF6A2
:1018E000FE731A400260704701684FF6FE721140A5
:1018F00001600021016041608160C1604B49884204
:1019000008D14A490839496841F00F01474A083A65
:1019100051608AE045491431884208D14349083969
:10192000496841F0F001414A083A51607DE03F4981
:101930002831884208D13D490839496841F470612D
:101940003A4A083A516070E038493C31884208D13F
:1019500036490839496841F47041344A083A5160BF
:1019600063E032495031884208D13049083949682A
:1019700041F470212D4A083A516056E02B496431F8
:10198000884208D129490839496841F47001274A39
:10199000083A516049E025497831884208D1234905
:1019A0000839496841F07061204A083A51603CE0CA
:1019B0001F49884206D1011F096841F00F01021F2B
:1019C000116032E01A491431884208D11849091FC0
:1019D000096841F0F001164A121F116025E0144910
:1019E0002831884208D11249091F096841F4706101
:1019F0000F4A121F116018E00D493C31884208D18E
:101A00000B49091F096841F47041094A121F11600E
:101A10000BE007495031884207D10549091F096881
:101A200041F47021024A121F1160704708600240A1
:101A30000864024010B50022026847F6F0739A432A
:101A40000C6A8B6823430C6923434C6923438C69DC
:101A50002343CC6923434C6A23438C6A23431A43B0
:101A60000260CB6843600B6883604B68C36010BD45
:101A700070470000014600200C4A12884A434FF08C
:101A8000E0235A6100229A6101221A6100BF4FF0DF
:101A9000E022106910F0010F02D010F4803FF6D060
:101AA00000224FF0E0231A619A617047660000201F
:101AB000F0B502460B46002100240025002000BF9F
:101AC00035E0012606FA01F41E6806EA0405A5427F
:101AD0002CD110684F000326BE40B0431E794F0042
:101AE000BE40304310601E79012E02D01E79022EB6
:101AF00012D190684F000326BE40B0435E794F007C
:101B0000BE4030439060908801268E40B0439E795D
:101B10008E40B6B230439080D0684F000326BE405E
:101B2000B043DE794F00BE403043D060491C1029DD
:101B3000C7D3F0BDF0B5002300244D07ED0E02FA27
:101B400005F3CE1000F1200555F826504E07F70E8C
:101B50000F26BE40B543CF1000F1200646F82750AF
:101B6000CE1000F1200555F8265045EA0304CE10AA
:101B700000F1200545F82640F0BD02460020138AFA
:101B80000B4201D0012000E00020704741837047E4
:101B900001837047828A4A408282704710B50446AA
:101BA000FFF7A8FD80212748FEF7D9FA26A001F00B
:101BB0003BF84FF4967001F0F7FC29A12A48FEF794
:101BC000E5FA2A4908600EE0FFF794FD1EA001F037
:101BD0002BF84FF4967001F0E7FC21A12248FEF7A4
:101BE000D5FA22490860214800680028ECD01F4837
:101BF0001FA10268134801F03BF81EA20221002039
:101C000000F054FCFFF776FD50200E4988701DA0AF
:101C100001F01EF80B48407C412811D14021234897
:101C2000FEF79DFA40212248FEF799FA00F042F8AB
:101C3000012C01D11D4810BD022C01D11C48FAE72E
:101C40000020F8E7EF04002041542B51474E535336
:101C500052443D224E4D45412F524D43220D0A0024
:101C600024474E524D4300000C0900201400002070
:101C700025730000535441525420475053205B4F6A
:101C80004B5D20003D3D3D3D3D3D3D3D3D3D3D3DB0
:101C90004745544750524D433D3D3D3D3D3D3D3D03
:101CA0003D3D3D3D3D3D0D0A25730000840600206D
:101CB000C406002010B5002423A12448FEF766FACC
:101CC000234908600846006800282ED000BF06E0BF
:101CD0001F480168A01C095C1E480155641C092CA2
:101CE000F6DB1DA11948FEF751FA194908600846AC
:101CF000006858B1002407E015480168A01C095C81
:101D000014480B380155641C0A2CF5DB114913A04B
:101D100000F09EFF0F490B3916A000F099FF01203B
:101D20000C49113981F8490004E0002009491139B2
:101D300081F849000749113991F8490000F028F865
:101D4000FFF7D8FC002010BD412C0000EF0400205C
:101D500014000020410600204E2C00006C617464C9
:101D60006174612E4C61746974756465202C2573EF
:101D7000200D0A006C6174646174612E6C6F6E6773
:101D80006974756465202C2573200D0A000000001D
:101D90002DE9F04F8DB08146B9F1000F7ED00024BF
:101DA00005E0AF48015D15300155601CC4B2032C3D
:101DB000F7DB032407E0AA48025DE01EA8491C31B6
:101DC0000A54601CC4B20A2CF5DBA549891F91F89E
:101DD0002810A1F13000FEF7D6FB8246A149FEF79C
:101DE0007CFA9F49891F069091F82710A1F13000D5
:101DF000FEF7C9FB9C490490FEF76FFA82469849AA
:101E0000891F91F82610A1F13000FEF7BCFB97491D
:101E10000290FEF762FA9249891F049091F825100A
:101E2000A1F13000FEF7AFFB91490090FEF755FAA3
:101E30008B49891F029091F823103039884A921FEC
:101E400092F82220303A02EB820201EB4200FEF7C8
:101E50009AFB01900299FEF7B2F903900499FEF7FC
:101E6000AEF983465146FEF7AAF905900699FEF7AA
:101E7000A6F90790FEF7A6FB00227E4BCDE90801EC
:101E8000FEF712FB074688467549891FC97E30391F
:101E900064225143724A921F127F00E0D4E0303A2C
:101EA00002EB820201EB42026D49891F497F303902
:101EB0005018FEF776FB3A464346CDE90A01FEF795
:101EC0004CFA0546FEF791FB6549891FC86400245A
:101ED00006E063480B30015D0E300155601CC4B252
:101EE000022CF6DB022408E05D480B30025DA01EE8
:101EF0005B4924310A54601CC4B2092CF4DB5849F4
:101F0000891F91F83010A1F13000FEF73CFB8046AC
:101F10005449FEF7E2F95249891F049091F82F10B5
:101F2000A1F13000FEF72FFB83464F49FEF7D5F9AC
:101F300080464B49891F91F82E10A1F13000FEF721
:101F400022FB4A490290FEF7C8F94549891F0390D0
:101F500091F82D10A1F13000FEF715FB44490090D7
:101F6000FEF7BBF93E49891F029091F82B103039DA
:101F70003B4A921F92F82A20303A02EB820201EB90
:101F80004200FEF700FB01900299FEF718F9834624
:101F90000399FEF714F982464146FEF710F905460B
:101FA0000499FEF70CF90590FEF70CFB0022314B6B
:101FB000CDE90601FEF778FACDE90A012849891F23
:101FC00091F82010A1F13000FEF7DDFA8246244995
:101FD000891FC97FA1F13000FEF7D5FA8346244955
:101FE000FEF745F980465146FEF7E9F80546FEF74B
:101FF000E9FACDE90801DDE90A23FEF7AEF9064664
:10200000FEF7F3FA1649891F0865086DFEF7DAFA3C
:1020100005462A460B4618A1184800F029FE10492B
:10202000891FC86CFEF7CEFA05462A460B4612A158
:10203000134800F01DFE114912A000F009FE1049DE
:1020400014A000F005FE07E000200549891FC864C0
:1020500000210348801F01650DB0BDE8F08F00002E
:102060003606002000401C4600007A440000C842AA
:102070000000204100004E4025660000840600203C
:10208000C40600206C617453747241462C25732081
:102090000D0A00006C6F6E53747241462C2573203C
:1020A0000D0A000000BFFEE71CB50121042000F06E
:1020B00055FA01208DF804004FF47570009000204F
:1020C0008DF8060001208DF8070069461A48FFF7D1
:1020D000EFFC4FF480711848FFF758FD4FF4007182
:1020E0001548FFF753FD80211348FFF751FD0421E8
:1020F0001148FFF74BFD40210F48FFF747FD102126
:102100000D48FFF745FD0121084600F027FA0120A0
:102110008DF804000002009000208DF806000120D8
:102120008DF8070069460548FFF7C2FC4FF480713F
:102130000248FFF72BFD1CBD0008024000000240D2
:1021400010B54FF480710B48FFF722FD4FF4FA7081
:1021500001F02AFA4FF400710648FFF719FD4FF419
:10216000FA7001F021FA4FF480710348FFF710FD77
:1021700010BD0000000802400000024000BFFEE762
:102180002DE9F043BDB080460C4615461E46DDF8ED
:102190001091E8220E4903A8FDF7C8FF4FF48071A3
:1021A0000C48FDF7DCFF2B46224603A90948CDE980
:1021B000006900F05DFD0748FDF7FAFF07463A4663
:1021C00004494046FDF7B2FFF8B23DB0BDE8F083E8
:1021D000483C0008040700207047000070B500214B
:1021E00000230F22C47824B3174C246804F4E0645D
:1021F000C4F5E064C4F30721C1F10404E3B20A4169
:1022000044789C40E1B28478144021430C07210EAD
:102210000E4C05786155047804F01F050124AC408C
:1022200005786D114FF0E02606EB8505C5F80041F5
:1022300009E0047804F01F040125A540044C067849
:10224000761144F8265070BD0CED00E000E400E08B
:1022500080E100E070B5002419E004F1B001C8B2DB
:10226000002100F03FF90021084600F03BF9002171
:10227000102000F037F9002505E00121002000F0D2
:1022800031F9681CC5B2802DF7DB601CC4B2082C84
:10229000E3DB70BD1CB50121084600F07FF9B020DA
:1022A000009001208DF8040003208DF80500694698
:1022B0005448FFF7FDFBB0215248FFF769FC0121AC
:1022C000022000F06BF940F20310009001208DF81D
:1022D000040003208DF8050069464B48FFF7E8FB32
:1022E00040F203114848FFF753FC01214648FFF72D
:1022F0004FFC642001F058F901214348FFF746FCE8
:10230000C82001F051F901213F48FFF741FC0021AD
:10231000AE2000F0E7F80021084600F0E3F80021C5
:10232000102000F0DFF80021402000F0DBF8002151
:10233000812000F0D7F80021CF2000F0D3F8002151
:10234000A12000F0CFF80021C82000F0CBF8002138
:10235000A62000F0C7F80021A82000F0C3F8002153
:102360003F2000F0BFF80021D32000F0BBF800218F
:10237000084600F0B7F80021D52000F0B3F800219E
:10238000802000F0AFF80021D92000F0ABF8002148
:10239000F12000F0A7F80021DA2000F0A3F80021D6
:1023A000122000F09FF80021DB2000F09BF80021B4
:1023B000402000F097F80021202000F093F8002141
:1023C000022000F08FF800218D2000F08BF8002112
:1023D000142000F087F80021A42000F083F80021E9
:1023E000A62000F07FF80021AF2000F07BF800214C
:1023F000AF2000F077F8FFF72DFF0021084600F02E
:1024000005F81CBD000002400004024070B50446FF
:102410000D4605F1B001C8B2002100F063F81021AB
:1024200041EA1410002100F05DF804F00F0141F0C2
:102430000100002100F056F870BD00002DE9F041C8
:1024400007460E46904600250024A8F12000C5B29C
:102450007F2F02DD0027B01CC6B231463846FFF799
:10246000D5FF002408E004EB05110F4A505C012160
:1024700000F038F8601CC4B2082CF4DB701CC1B248
:102480003846FFF7C3FF002409E004EB05110831CB
:10249000054A505C012100F025F8601CC4B2082CEC
:1024A000F3DBBDE8F0810000583F00082DE9F04162
:1024B00004460F46154600260EE0AA5D3946204622
:1024C000FFF7BCFF04F10800C4B2782C02DD002441
:1024D000B81CC7B2701CC6B2A85D0028EDD1BDE81B
:1024E000F081000070B504460E4626B1022118485E
:1024F000FFF74EFB03E002211548FFF747FB1021D1
:102500001448FFF743FB002517E020211148FFF78F
:102510003DFB14F0800F04D080210E48FFF738FBFC
:1025200003E080210B48FFF731FB20210948FFF72A
:102530002FFB6006040E681CC5B2082DE5DB1021D8
:102540000448FFF725FB02210148FFF721FB70BD7E
:1025500000040240000002407047000029B1064A12
:1025600012680243044B1A6004E0034A1268824373
:10257000014B1A60704700001C38024029B1064A1E
:1025800012680243044B1A6004E0034A1268824353
:10259000014B1A60704700002438024029B1064AF6
:1025A00012680243044B1A6004E0034A1268824333
:1025B000014B1A607047000020380240F0B500213E
:1025C00000220023002600240025374F3F6807F033
:1025D0000C0131B1042912D0082913D00C2934D1AF
:1025E00013E0314F3F1F3F68C7F342356F1C4FF078
:1025F000010C0CFA07FC4FEACC37076033E02B4F95
:10260000076030E02A4F07602DE0274F3F6807F44E
:102610007012254F3F6807F44003264F07EB92479F
:102620003A78012707EB93531F4F3F6807F4803632
:102630002EB91E4F5743B7FBF3F7076004E01C4F5A
:102640005743B7FBF3F707600DE0174F3F1F3F6895
:10265000C7F342356F1C4FF0010C0CFA07FC4FEA30
:10266000CC37076000BF00BF0F4F3F6807F0F00195
:102670000909114F7C5C0768E74047600A4F3F68D3
:1026800007F4E061090A0C4F7C5C4768E74087600B
:10269000054F3F6807F46051C90A074F7C5C4768E3
:1026A000E740C760F0BD0000083802400024F40095
:1026B00000127A00280000203100002010B50146E9
:1026C0000022002300204A11012A02D1074C23686E
:1026D00002E0064C3434236801F01F0201249440C8
:1026E0001C4201D0012000E0002010BD0038024053
:1026F0000149086070470000000047427047000031
:102700000CB50020019000903D48006840F48030F6
:102710003B49086000BF3A48006800F40030009070
:102720000198401C0190009818B90198B0F5A04F8D
:10273000F1D13348006810F4003F02D0012000902E
:1027400001E0002000900098012857D12D48006832
:1027500040F004002B4908600846006840F0020081
:1027600008600846006840F00100086024482430F2
:10277000006840F08050224924310860C814224982
:10278000086000BF2048406810F0100FFAD11C48C4
:10279000083000681A490831086008460068086077
:1027A0000846006808600846006820F47D0008605C
:1027B0000846006840F4110008601148006840F0C5
:1027C00080700F49086000BF0D48006810F0007F5E
:1027D000FAD00B480830006820F00300084908319F
:1027E00008600846006840F00300086000BF044825
:1027F0000830006800F00C000C28F8D10CBD000077
:1028000000380240003C024000700040042808D11B
:102810004FF0E021096941F004014FF0E02211611D
:1028200007E04FF0E021096921F004014FF0E022B8
:102830001161704710B500F079F810BD10B515485A
:10284000006840F48070134908601248083000683E
:10285000114908400F49083108600E4800680F49C7
:1028600008400C4908600846006820F48020086091
:1028700008480830006820F47D00064908310860E7
:102880000020091D0860FFF73BFF4FF0006004497E
:10289000086010BD003802400CC0FF88FEFFFEEE4D
:1028A00008ED00E010B501210D4800F02EF8A8B1A8
:1028B00001210B4800F01AF80A480078401C094929
:1028C000087008460078012808DB00200870012005
:1028D000054908700021024800F00BF810BD000007
:1028E000000400406100002062000020CA43028210
:1028F000704721B1028842F00102028004E00288A0
:102900004FF6FE731A400280704730B50246002031
:1029100000230024158A05EA0103958905EA0104CC
:1029200013B10CB1012000E0002030BD0448006864
:1029300020B103480068401E01490860704700004C
:102940000400002010B5044600BF8021044800F0B8
:102950008DF80028F9D02146014800F04EF910BD4D
:102960000044004010B540F225510A4800F08BF8B1
:1029700070B1084800F03CF9C1B20748D0F8042112
:10298000D0F80401401C044BC3F8040118468154DC
:1029900010BD0000003801400408002010B540F2CE
:1029A0002551114800F06FF801280BD10E4800F0B6
:1029B0001FF9C4B2204600F0DBFF40F225510A485F
:1029C00000F039F80821084800F050F801280AD131
:1029D000054800F00DF9C4B2204600F0C9FF0821F7
:1029E000014800F01FF810BD0044004010B540F24F
:1029F00025510A4800F047F870B1084800F0F8F88F
:102A0000C1B20748D0F80421D0F80401401C044B9F
:102A1000C3F804011846815410BD0000004800406E
:102A2000140A002001F40072B2F5007F00D100BF4B
:102A3000CA430280704710B500220023A1F510643C
:102A40006A3C00D100BF0A1201249440A3B2DC43C7
:102A5000048010BD21B1828942F40052828104E0D9
:102A600082894DF6FF731A4082817047024600202A
:102A7000B1F5007F00D100BF13880B4201D00120C7
:102A800000E00020704770B50246002400230025B6
:102A90000020A1F510666A3E00D100BFC1F34215C7
:102AA00001F01F03012606FA03F3012D02D19689D6
:102AB000334006E0022D02D1168A334001E0968AA7
:102AC00033400C12012606FA04F41688344013B180
:102AD0000CB1012000E0002070BDF0B503460024D9
:102AE000002600250020A1F510676A3F00D100BF35
:102AF0001846C1F3421401F01F06012707FA06F534
:102B0000012C01D10C3004E0022C01D1103000E086
:102B100014301AB107682F43076002E00768AF431B
:102B20000760F0BD2DE9FF4705460E460024A1468B
:102B300000BFA046B08900B100BF2C8A24F44054E5
:102B4000F08804432C82AC8941F20C608443B08845
:102B500031890843718908430443AC81AC8A24F469
:102B60004074B0890443AC826846FFF727FD1F48D4
:102B7000854202D1DDF80C9001E0DDF80890A889CB
:102B800010F4004F08D009EBC90000EB09103168C0
:102B90004900B0FBF1F707E009EBC90000EB0910B1
:102BA00031688900B0FBF1F76420B7FBF0F0040155
:102BB0002009642101FB1078A88910F4004F08D087
:102BC000322000EBC800B0FBF1F000F00700044336
:102BD00008E0322000EB08106421B0FBF1F000F0B7
:102BE0000F0004432C81BDE8FF870000003801403E
:102BF00001468888C0F308007047C1F3080282804C
:102C0000704700000AE000BF0649098811F0400F34
:102C1000FAD00178034A121D1180401C0178002966
:102C2000F1D17047003801400AE000BF0649098829
:102C300011F0400FFAD00178034A121D1180401C98
:102C400001780029F1D170470044004000BFFEE741
:102C50000FB4054B10B503A9044A029800F0DAF846
:102C600010BC5DF814FB0000213600087000002045
:102C70000FB4084B10B504A902AA039800F0CAF8D3
:102C8000044602A9002000F068FC204610BC5DF854
:102C900014FB00005B35000802E008C8121F08C1E1
:102CA000002AFAD170477047002001E001C1121FCD
:102CB000002AFBD1704700002DE9FF5FDDE902200B
:102CC000010DDDF838B0024310D10F9801244CA259
:102CD000012808D0002100980F9BC0E90021C0E91D
:102CE0000243BDE8FF9F6FEA0B01F4E7A1F2FF3159
:102CF00044F6105041430D140F9801280ED0A5EB57
:102D00000B00401C4FF000043E4EDFF8FC90B0F189
:102D1000000AA04605DACAF1000717E0CBF100006F
:102D2000F0E7074612E0F80707D022463346404650
:102D30004946FDF773FD80468946224633461046D4
:102D40001946FDF76BFD04460E467F10002FEAD1B1
:102D5000DDE90201BAF1000F42464B4602DAFDF707
:102D60005DFD01E0FDF7A0FB04460E460022274B67
:102D7000FDF7DEFD03D84FF0FF30014607E00022EB
:102D8000234B20463146FDF7E8FAFDF7B9FD102444
:102D900009E0002C0ADB0A220023FDF758FC019B06
:102DA00030321A55641E50EA0102F2D1641C019AB5
:102DB000C4F1110314440F9A012A09D001220843D7
:102DC00001D15B450FDD4FF0000205F101050DE07B
:102DD000084303D1A3EB0B056D1E09E000204FF063
:102DE000110B0F9088E701DA00226D1E002A83D0B4
:102DF00000980F99C0E90231C0E9004571E7000071
:102E000030000000000024400000F03F0000F043CC
:102E10000000E03F2DE9FF4F95B09B4689460646EE
:102E2000002512E2252878D10024761CF94A27468D
:102E3000012105943378203B01FA03F0104202D0BF
:102E40000443761CF6E730782A2811D06FF02F0360
:102E50003078A0F13002092A16D8059A44F002040D
:102E600002EB820203EB42021044761C0590EFE76E
:102E700059F8042B0592002A03DA504244F4005416
:102E8000059044F00204761C30782E2816D116F8EE
:102E9000010F44F004042A280DD06FF02F0230787F
:102EA000A0F13003092B09D807EB870302EB43039A
:102EB000C718761CF3E759F8047B761C30786C2829
:102EC0000FD006DC4C2817D068280DD06A2814D102
:102ED00004E0742810D07A280FD10DE044F40014D7
:102EE0000AE044F4801401E044F440147278824211
:102EF00002D1761C04F58014761C307866280BD03D
:102F000013DC582877D009DC002875D04528F6D086
:102F10004628F4D047281AD19FE118E0632835D01D
:102F2000642879D0652812D197E1702873D008DC25
:102F30006728F1D069286FD06E280DD06F2806D190
:102F4000B5E073282CD0752875D0782874D05A46EF
:102F5000179990476D1C76E1C4F30250022809D0FE
:102F600003280DD0D9F8001004280DD00D6009F108
:102F7000040968E1D9F80010EA17C1E90052F6E740
:102F8000D9F800100D80F2E70D70F0E719F8041B76
:102F90008DF8001000208DF80100EA46012003E0C2
:102FA00059F804AB4FF0FF3061074FF0000102D435
:102FB0000DE008F101018846B9420FDA8045F8DBDF
:102FC0001AF808100029F4D108E008F10101884638
:102FD0008142FADB1AF808100029F6D105985B4601
:102FE000A0EB080721463846179A00F09EFA2844BD
:102FF00000EB080507E04DE02BE10DE01AF8010BAE
:103000005A4617999047B8F10108F7D25B46214616
:103010003846179A14E142E00A220092C4F30252A1
:103020004FF0000A022A08D059F804CB032A4FEACD
:10303000EC710AD00DE029E02AE009F1070121F046
:103040000702F2E802C1914609E00FFA8CFC4FEA50
:10305000EC71042A03D14FFA8CFC4FEAEC71002981
:1030600007DA0A460021DCF1000C61EB02012D2297
:1030700002E0220504D52B228DF80420012203E072
:10308000E20701D02022F7E7904653E00A2102E050
:1030900010220DE010214FF0000A00910BE01022E9
:1030A0004FF0000A44F004040827009203E00822CD
:1030B0004FF0000A0092C4F30252022A05D059F8D8
:1030C00004CB0021032A08D009E009F1070121F00F
:1030D0000702F2E802C1914605E01FFA8CFC042ABF
:1030E00001D10CF0FF0C4FF00008220722D5702808
:1030F00027D0009B83F0100353EA0A0309D15CEA4E
:10310000010206D030228DF804208DF8050002223D
:103110009046009B83F0080353EA0A030AD15CEA55
:10312000010201D1620705D530228DF804204FF04D
:1031300001087F1E582809D037A003900EA80290DE
:1031400013E040228DF804200122E1E737A0F4E7E4
:1031500053466046009AFDF77AFA84460398825CEB
:103160000298A0F10100029002705CEA0100EFD128
:10317000029806A9A1EB000000F1200A600702D521
:1031800024F4803400E00127574502DDA7EB0A0054
:1031900000E0002000EB0A01009005984144A0EBFC
:1031A00001000590E00306D45B462146179A059876
:1031B00000F0BBF90544002706E001A85A46C05DAF
:1031C000179990476D1C7F1C4745F6DBE0030CD533
:1031D0005B462146179A059800F0A7F9054404E0DC
:1031E00030205A46179990476D1C0099481E009050
:1031F0000029F5DC08E0029802995A460078491C3B
:103200000291179990476D1CBAF10001AAF1010AC9
:10321000F1DC6BE1092801003031323334353637C7
:103220003839616263646566000000003031323312
:1032300034353637383941424344454600000000B2
:1032400000F060F9054406F10106307800287FF4AB
:10325000E9AD19B02846BDE8F08F620700D4062713
:1032600009F1070222F0070CFCE80223E14603F013
:1032700000485FEA080C02D00FF27C2C0DE05FEAF8
:10328000045C02D50FF2742C07E05FEAC47C02D024
:103290000FF26C2C01E0AFF2700C4FF0FF3823F00E
:1032A0000043CDF850C065280CD006DC452809D075
:1032B00046281DD047283ED13EE0662818D0672812
:1032C00039D139E00021112F01DB112000E0781CF9
:1032D000CDE9000106A90EA8FFF7EEFCDDE90F011C
:1032E0000E9A03910021009207F1010A04914EE029
:1032F0004FF000400097CDE9011006A90EA8FFF796
:10330000DBFCDDE90F0203920E9B11990022DDF830
:103310000CA00093049219B907F1010100EB010A16
:10332000B7EB0A0004D4C0F1FF3007F1010A0490A2
:10333000AAEB0700019046E0012F00DA01270021E7
:10334000112F01DD112000E03846CDE9000106A96A
:103350000EA8FFF7B1FCDDE90F010E9A03910021E1
:1033600004910092BA4621070CD40399514500DA22
:103370008A46BAF1010F05DD009AAAF10101515CFC
:10338000302908D0B84202DA10F1040F06DA012120
:10339000CDE9011017E0AAF10101E9E7002805DCF9
:1033A000049901440491AAEB000102E0411C51453B
:1033B00000DD8A460499A0EB010000F101000190B4
:1033C0004FF000400290200704D40198504501DBE3
:1033D000CDF8048000208DF84F0002980DF14F07C2
:1033E000B0F1004F25D02B200E9002984FF002082C
:1033F00000280CDA404202902D200E9007E00A21AE
:103400000298FDF70EF93031029007F8011DB8F16E
:103410000001A8F10108F2DC02980028EFD1791E22
:103420000E980870307800F0200040F0450007F852
:10343000020D12A8A0EB070000F10708149800780D
:1034400000B1012000EB0A01019801EBE071059841
:103450004144A0EB0100A0F101000590E00306D477
:103460005B462146179A059800F05FF805441498CA
:10347000007820B15A461799904705F10105E003FD
:1034800023D55B462146179A059800F04EF805446F
:103490001BE00498002807DBDDE90301884203DD17
:1034A0000098405C179901E0179930205A469047E0
:1034B00004986D1C401C04900198401E019004D19A
:1034C0002E205A46179990476D1CBAF10001AAF1B7
:1034D000010ADEDC05E017F8010B5A461799904700
:1034E0006D1CB8F10001A8F10108F4DC5B4621462F
:1034F000179A0598A4E600002D0000002B0000009C
:10350000200000002DE9F041044600251E46174624
:10351000880405D406E039462020B04705F10105AE
:10352000641EF8D52846BDE8F0812DE9F041044637
:1035300000251E469046C80301D5302700E020270D
:10354000880405D506E041463846B04705F1010537
:10355000641EF8D52846BDE8F0810A68531C0B604C
:103560001070704710B56FF00400FFF74FF90A486C
:1035700000680A49B0FBF1F0094908700846007874
:1035800000EB4001C1EBC0104FF6FF7101EAC00033
:103590000449088010BD00004400002000127A0099
:1035A0006400002066000020014600200C4A1288BA
:1035B0004A434FF0E0235A6100229A6101221A61C6
:1035C00000BF4FF0E022106910F0010F02D010F49C
:1035D000803FF6D000224FF0E0231A619A617047D5
:1035E00066000020014600200C4A12784A434FF042
:1035F000E0235A6100229A6101221A6100BF4FF054
:10360000E022106910F0010F02D010F4803FF6D0D4
:1036100000224FF0E0231A619A6170476400002095
:1036200000BF054A128812F0400FFAD0C2B2024B16
:103630001B1D1A807047000000380140ADF5607D09
:10364000904800684FF47A72B0FBF2F1481EB0F176
:10365000807F01D301201BE0481E4FF0E022506123
:1036600050170F22002807DA13071F0E864B00F0B1
:103670000F06361F9F5503E013071E0E834B1E5483
:1036800000BF00204FF0E022906107201061002071
:1036900008B100BFFEE7FEF707FD4FF4E13000F090
:1036A0007FF94FF4E13000F0DBF94FF4E13000F046
:1036B00041FAFFF757FFFEF743FD00BFFEF77EF824
:1036C0000028FBD1FEF7E6FDFEF7C4FD70A2002145
:1036D0000846FEF7EBFE72A202210020FEF7E6FE8E
:1036E000FDF77EF972A0FFF78DFA00BFFDF7A0FB92
:1036F0000028FBD1FDF714FDFDF72CFBFDF776FD4F
:10370000BEE000244FF4807120A8FCF728FD402182
:1037100010A8FCF724FD40216846FCF720FD69A1B4
:1037200020A8FCF727FD6AA204210020FEF7BEFEB8
:103730000120FEF733FA04466CB1214620A8FCF7BD
:1037400019FD214610A8FCF715FD224604211B2077
:10375000FEF7ACFE11E05FA120A8FCF70BFD5DA118
:1037600010A8FCF707FD5CA204211B20FEF79EFEBB
:103770005CA204211B20FEF799FE5CA120A8FCF7A7
:10378000F9FC5DA206210020FEF790FE0220FEF764
:1037900005FA04466CB1214620A8FCF7EBFC214653
:1037A0006846FCF7E7FC224606211B20FEF77EFE5A
:1037B00011E052A120A8FCF7DDFC50A16846FCF7FF
:1037C000D9FC4FA206211B20FEF770FE45A2062160
:1037D0001B20FEF76BFE20A94CA0FFF739FA5048DA
:1037E0000088FCF7D9FE07464E49FCF740FD064627
:1037F0004D49FCF772FD05462846FCF7E3FE0646F8
:1038000032460B4649A0FFF723FA4FF4807160A8B7
:10381000FCF7A5FC4FF48071A0A8FCF7A0FC28469B
:10382000FCF7D0FE064632460B4643A160A8FFF7E0
:103830001FFA60A9A0A8FCF79DFCA0A940A0FDF775
:1038400035FA40494048FEF700F83F4801783FA06C
:10385000FFF7FEF93B48017840A0FFF7F9F96B4606
:1038600010AA3848017838480078FDF76DFE4FF40B
:103870007A70FEF7FFF84FF480713C48FEF78AF942
:103880003FE700004400002018ED00E000E400E005
:1038900053544D33322B424332302B574946490063
:1038A0004E42494F542047505320424F415244000A
:1038B000696E69742073746D33324C20434F4D31FF
:1038C000200D0A006C617469747564653D00000028
:1038D0004C613A0039300000202020202020202098
:1038E0002020200077726F6E67000000266C6F6EDC
:1038F0006769747564653D004C6F3A0030000000E4
:1039000020202020202020202020000073656E64CD
:103910004D757469446174613D2573200D0A000082
:103920000000002000404E4500F07F456164633197
:103930003D2566200D0A0000252E3166000000009E
:10394000380000000900002008000020CEC2B6C8E0
:10395000A3BA25642043200D0A000000CAAAB6C8F5
:10396000A3BA25642052480D0A0000000008024056
:103970000A49D1F80411FF2904D90021074AC2F8E5
:1039800004110AE00549D1F80421D1F80411491CB9
:10399000024BC3F804111946885470470C090020E3
:1039A00010B588B0044601210846FEF7D7FD012175
:1039B0008803FEF7F3FD072209212748FEF7BAF82E
:1039C00007220A212448FEF7B5F84FF4007006904C
:1039D00002208DF81C008DF81D0000208DF81E00BF
:1039E00001208DF81F0006A91B48FEF761F84FF46F
:1039F0008060069002208DF81C0006A91648FEF78C
:103A000057F825208DF8040003208DF805008DF867
:103A1000060001208DF8070001A8FEF7DFFB0294E5
:103A20000020ADF80C00ADF80E00ADF81000ADF8B8
:103A300014000C20ADF8120002A90848FFF772F834
:103A4000012240F225510548FFF747F801210348BC
:103A5000FFF700F808B010BD000002400038014038
:103A600010B588B0044601210846FEF777FD012114
:103A70004804FEF783FD072202212C48FEF75AF87E
:103A8000072203212948FEF755F80420069002205A
:103A90008DF81C0003208DF81D0000208DF81E00FD
:103AA00006A92248FEF704F80820069003208DF8A6
:103AB0001D0002208DF81C0001208DF81F0006A9B2
:103AC0001A48FDF7F5FF26208DF8040003208DF835
:103AD000050002208DF8060001208DF8070001A8DE
:103AE000FEF77CFB02940020ADF80C00ADF80E0050
:103AF000ADF81000ADF814000C20ADF8120002A9CA
:103B00000B48FFF70FF8012240F225510848FEF755
:103B1000E4FF01210648FEF79DFF012240F22551F6
:103B20000348FEF7DAFF08B010BD000000000240B5
:103B30000044004010B588B0044601210220FEF781
:103B40000DFD01218804FEF719FD07220A212748EF
:103B5000FDF7F0FF07220B212448FDF7EBFF4FF4A0
:103B60008060069002208DF81C008DF81D0000205A
:103B70008DF81E0001208DF81F0006A91B48FDF7D7
:103B800097FF4FF40060069002208DF81C0006A9F4
:103B90001648FDF78DFF27208DF8040001208DF8D1
:103BA00005008DF806008DF8070001A8FEF716FB4A
:103BB00002940020ADF80C00ADF80E00ADF8100036
:103BC000ADF814000C20ADF8120002A90848FEF769
:103BD000A9FF012240F225510548FEF77EFF012191
:103BE0000348FEF737FF08B010BD00000004024094
:103BF0000048004041542B514D545055423D302C0B
:103C0000312C312C302C222F7379732F25732F25D3
:103C1000732F7468696E672F6576656E742F707286
:103C20006F70657274792F706F7374222C227B70A1
:103C30006172616D733A7B4C696768744C75783A50
:103C400025737D7D220D0A007B226964223A223190
:103C50003233222C2276657273696F6E223A2231DA
:103C60002E30222C22706172616D73223A7B2243C6
:103C7000757272656E7454656D706572617475727B
:103C800065223A7B2276616C7565223A25647D2C2B
:103C90002243757272656E7448756D6964697479D2
:103CA000223A7B2276616C7565223A25647D2C224E
:103CB00047656F4C6F636174696F6E223A7B202297
:103CC00076616C7565223A7B224C61746974756407
:103CD00065223A25732C224C6F6E67697475646592
:103CE000223A25732C22416C746974756465223AFA
:103CF000312C22436F6F7264696E617465537973FE
:103D000074656D223A317D7D7D2C226D6574686FFE
:103D100064223A227468696E672E6576656E742E29
:103D200070726F70657274792E706F7374227D007B
:103D30000000000000000000002F0000000007004D
:103D4000070000147F147F1400242A7F2A120062C7
:103D50006408132300364955225000000503000073
:103D600000001C224100000041221C000014083EFB
:103D700008140008083E0808000000A060000008C1
:103D80000808080800006060000000201008040215
:103D9000003E5149453E0000427F400000426151D3
:103DA0004946002141454B31001814127F1000276D
:103DB00045454539003C4A49493000017109050330
:103DC00000364949493600064949291E0000363661
:103DD00000000000563600000008142241000014C4
:103DE00014141414000041221408000201510906A1
:103DF00000324959513E007C1211127C007F494922
:103E00004936003E41414122007F4141221C007F52
:103E100049494941007F09090901003E4149497A60
:103E2000007F0808087F0000417F410000204041DA
:103E30003F01007F08142241007F40404040007F46
:103E4000020C027F007F0408107F003E4141413E8A
:103E5000007F09090906003E4151215E007F0919D2
:103E600029460046494949310001017F0101003FCF
:103E70004040403F001F2040201F003F4038403F4F
:103E800000631408146300070870080700615149B3
:103E9000454300007F41410000552A552A55000046
:103EA00041417F00000402010204004040404040C4
:103EB000000001020400002054545478007F48445C
:103EC000443800384444442000384444487F003893
:103ED0005454541800087E0901020018A4A4A47CBC
:103EE000007F080404780000447D40000040808486
:103EF0007D00007F102844000000417F4000007CCE
:103F000004180478007C08040478003844444438D9
:103F100000FC242424180018242418FC007C080425
:103F2000040800485454542000043F444020003CFE
:103F30004040207C001C2040201C003C4030403C85
:103F4000004428102844001CA0A0A07C0044645415
:103F50004C44141414141414000000000000000059
:103F60000000000000000000000000F80000000059
:103F7000000000333000000000100C06100C06009A
:103F8000000000000000000040C07840C078400001
:103F9000043F04043F040400007088FC0830000063
:103FA000001820FF211E0000F008F000E0180000BB
:103FB00000211C031E211E0000F008887000000074
:103FC0001E2123241927211010160E0000000000C6
:103FD0000000000000000000000000E018040200E3
:103FE000000000071820400000020418E000000054
:103FF0000040201807000000404080F08040400052
:104000000202010F01020200000000F000000000A7
:104010000101011F0101010000000000000000007B
:1040200080B07000000000000000000000000000F0
:104030000001010101010101000000000000000079
:104040000030300000000000000000008060180414
:10405000006018060100000000E010080810E000F1
:10406000000F102020100F00001010F800000000BA
:104070000020203F20200000007008080888700001
:104080000030282422213000003008888848300081
:104090000018202020110E000000C02010F80000A1
:1040A00000070424243F240000F80888880808003A
:1040B0000019212020110E0000E01088881800004F
:1040C000000F112020110E0000380808C838080021
:1040D0000000003F000000000070880808887000A1
:1040E000001C222121221C0000E010080810E00022
:1040F0000000312222110F00000000C0C0000000AB
:1041000000000030300000000000008000000000CF
:1041100000008060000000000000804020100800C7
:104120000001020408102000404040404040400090
:10413000040404040404040000081020408000006B
:104140000020100804020100007048080808F00070
:104150000000003036010000C030C828E810E00040
:104160000718272423140B000000C038E0000000CB
:10417000203C23020227382008F888888870000035
:10418000203F202020110E00C03008080808380009
:10419000071820202010080008F808080810E00080
:1041A000203F202020100F0008F88888E808100021
:1041B000203F20202320180008F88888E8081000F5
:1041C000203F200003000000C0300808083800002D
:1041D00007182020221E020008F808000008F8082E
:1041E000203F210101213F20000808F808080000B5
:1041F0000020203F2020000000000808F8080800E8
:10420000C08080807F00000008F888C0281808005F
:10421000203F20012638200008F808000000000098
:10422000203F20202020300008F8F800F8F808008F
:10423000203F003F003F200008F830C00008F80889
:10424000203F200007183F00E01008080810E00099
:104250000F10202020100F0008F808080808F000B0
:10426000203F210101010000E01008080810E000D3
:104270000F18242438504F0008F888888888700068
:10428000203F2000030C3020007088080808380008
:104290000038202121221C00180808F808081800FE
:1042A0000000203F2000000008F808000008F8087F
:1042B000001F202020201F000878880000C8380830
:1042C000000007380E010000F80800F80008F800A8
:1042D000033C0700073C0300081868808068180842
:1042E00020302C03032C30200838C800C8380800C0
:1042F0000000203F2000000010080808C83808000F
:104300002038262120201800000000FE02020200B2
:104310000000007F40404000000C30C00000000062
:10432000000000010638C00000020202FE0000008A
:10433000004040407F000000000004020202040030
:10434000000000000000000000000000000000006D
:104350008080808080808080000202040000000055
:10436000000000000000000000008080808000004D
:104370000019242222223F2008F80080800000003B
:10438000003F112020110E000000008080800000FE
:10439000000E112020201100000000808088F8000D
:1043A000000E112020103F2000008080808000003F
:1043B000001F222222221300008080F088888818A3
:1043C0000020203F202000000000808080808000AE
:1043D000006B94949493600008F800808080000043
:1043E000203F210000203F2000809898000000001E
:1043F0000020203F2020000000000080989800004E
:1044000000C08080807F000008F80000808080006D
:10441000203F24022D302000000808F80000000092
:104420000020203F2020000080808080808080004D
:10443000203F20003F20003F8080008080800000DF
:10444000203F210000203F2000008080808000006D
:10445000001F202020201F0080800080800000009E
:1044600080FFA12020110E000000008080808000CD
:10447000000E112020A0FF808080800080808000BE
:1044800020203F21200001000000808080808000EB
:104490000033242424241900008080E08080000060
:1044A0000000001F202000008080000000808000AD
:1044B000001F202020103F2080808000008080800E
:1044C00000010E300806010080800080008080809E
:1044D0000F300C030C300F000080800080808000C3
:1044E0000020312E0E3120008080800000808080EE
:1044F00080818E701806010000808080808080009E
:104500000021302C2221300000000000807C0202BB
:1045100000000000003F404000000000FF000000DD
:1045200000000000FF0000000002027C800000008C
:104530000040403F000000000006010102020404A8
:104540000000000000000000684500080000002096
:1045500074000000982C0008DC450008740000205E
:10456000EC110000A82C0008000000000000000072
:1045700000000000000000006400000000000000D7
:10458000000000000000000000000000000000002B
:10459000030406080C10182030000000000102037C
:1045A0000401020304060708090000000048E801AE
:1045B000030406080C101820300000000000000062
:1045C00000010203040607080900000000000000C3
:0C45D000000000000000000000000000DF
:04000005080000F5FA
:00000001FF
